:020000040800F2
:10000000000004202D8A0008E5810008E98100082D
:10001000ED810008F1810008F58100080000000072
:10002000000000000000000000000000F98100084E
:10003000FD81000800000000018200080582000820
:100040007D8A00087D8A00087D8A00087D8A000874
:100050007D8A00087D8A00087D8A000815820008D4
:100060001D8200087D8A00087D8A00087D8A0008BC
:100070007D8A00087D8A00087D8A00087D8A000844
:100080007D8A00087D8A00087D8A00087D8A000834
:100090007D8A00087D8A00087D8A00087D8A000824
:1000A0007D8A00087D8A00087D8A00087D8A000814
:1000B0007D8A00087D8A00087D8A00087D8A000804
:1000C0007D8A00087D8A00087D8A00087D8A0008F4
:1000D0007D8A00087D8A00087D8A00087D8A0008E4
:1000E0007D8A00087D8A00087D8A00087D8A0008D4
:1000F0007D8A00087D8A00087D8A00087D8A0008C4
:10010000000000007D8A00087D8A00087D8A0008C2
:1001100000000000000000007D8A00087D8A0008C1
:100120002D8200087D8A0008398200084582000877
:100130007D8A00087D8A00087D8A00087D8A000883
:100140007D8A00087D8A00087D8A000851820008A7
:100150007D8A00087D8A00087D8A00087D8A000863
:100160007D8A00087D8A0008000000000000000071
:10017000000000000000000000000000000000007F
:100180007D8A00087D8A0008000000000000000051
:100190007D8A00087D8A0008000000000000000041
:1001A000000000000000000000000000000000004F
:1001B0007D8A000800000000000000007D8A000821
:0401C0007D8A00082C
:1001D00010B5054C237833B9044B13B10448AFF381
:1001E00000800123237010BDD80100200000000012
:1001F000509300080C4B43B10C480D4910B5AFF3B8
:1002000000800C48036823B910BD0A48036833B95D
:100210007047094B002BF7D0BDE810401847064B3C
:10022000002BF5D0184700BF0000000050930008D5
:10023000DC010020D80100200000000081F0004116
:1002400002E000BF83F0004330B54FEA41044FEABB
:10025000430594EA050F08BF90EA020F1FBF54EA56
:10026000000C55EA020C7FEA645C7FEA655C00F0F2
:10027000E2804FEA5454D4EB5555B8BF6D420CDDC3
:100280002C4480EA020281EA030382EA000083EA46
:10029000010180EA020281EA0303362D88BF30BDE6
:1002A00011F0004F4FEA01314FF4801C4CEA11313C
:1002B00002D0404261EB410113F0004F4FEA03339B
:1002C0004CEA133302D0524263EB430394EA050F26
:1002D00000F0A780A4F10104D5F1200E0DDB02FA95
:1002E0000EFC22FA05F2801841F1000103FA0EF229
:1002F000801843FA05F359410EE0A5F120050EF1EF
:10030000200E012A03FA0EFC28BF4CF0020C43FA1F
:1003100005F3C01851EBE37101F0004507D54FF02C
:10032000000EDCF1000C7EEB00006EEB0101B1F57C
:10033000801F1BD3B1F5001F0CD349085FEA3000C2
:100340004FEA3C0C04F101044FEA445212F5800FCD
:1003500080F09A80BCF1004F08BF5FEA500C50F16A
:10036000000041EB045141EA050130BD5FEA4C0C4D
:10037000404141EB010111F4801FA4F10104E9D1D6
:1003800091F0000F04BF01460020B1FA81F308BFCD
:100390002033A3F10B03B3F120020CDA0C3208DD99
:1003A00002F1140CC2F10C0201FA0CF021FA02F174
:1003B0000CE002F11402D8BFC2F1200C01FA02F1E4
:1003C00020FA0CFCDCBF41EA0C019040E41AA2BF09
:1003D00001EB0451294330BD6FEA04041F3C1CDAD1
:1003E0000C340EDC04F11404C4F1200220FA04F0F1
:1003F00001FA02F340EA030021FA04F345EA03019B
:1004000030BDC4F10C04C4F1200220FA02F001FA5C
:1004100004F340EA0300294630BD21FA04F02946DE
:1004200030BD94F0000F83F4801306BF81F4801177
:100430000134013D4EE77FEA645C18BF7FEA655CEA
:1004400029D094EA050F08BF90EA020F05D054EABC
:10045000000C04BF1946104630BD91EA030F1EBFC1
:100460000021002030BD5FEA545C05D140004941C5
:1004700028BF41F0004130BD14F580043CBF01F5B8
:10048000801130BD01F0004545F0FE4141F470019E
:100490004FF0000030BD7FEA645C1ABF1946104679
:1004A0007FEA655C1CBF0B46024650EA013406BF7A
:1004B00052EA033591EA030F41F4002130BD00BF39
:1004C00090F0000F04BF0021704730B54FF48064F6
:1004D00004F132044FF000054FF0000150E700BF77
:1004E00090F0000F04BF0021704730B54FF48064D6
:1004F00004F1320410F0004548BF40424FF00001C3
:100500003EE700BF42004FEAE2014FEA31014FEA05
:1005100002701FBF12F07F4393F07F4F81F0605154
:10052000704792F0000F14BF93F07F4F704730B5C3
:100530004FF4607401F0004521F0004120E700BF56
:1005400050EA010208BF704730B54FF000050AE0DD
:1005500050EA010208BF704730B511F0004502D5DE
:10056000404261EB41014FF4806404F132045FEAE0
:10057000915C3FF4DCAE4FF003025FEADC0C18BF85
:1005800003325FEADC0C18BF033202EBDC02C2F17B
:10059000200300FA03FC20FA02F001FA03FE40EA0D
:1005A0000E0021FA02F11444C1E600BF70B54FF00D
:1005B000FF0C4CF4E06C1CEA11541DBF1CEA1355EF
:1005C00094EA0C0F95EA0C0F00F0DEF82C4481EA57
:1005D000030621EA4C5123EA4C5350EA013518BF77
:1005E00052EA033541F4801143F4801338D0A0FB64
:1005F00002CE4FF00005E1FB02E506F00042E0FB11
:1006000003E54FF00006E1FB03569CF0000F18BF16
:100610004EF0010EA4F1FF04B6F5007F64F54074BE
:1006200004D25FEA4E0E6D4146EB060642EAC62151
:1006300041EA55514FEAC52040EA5E504FEACE2EBE
:10064000B4F1FD0C88BFBCF5E06F1ED8BEF1004FC1
:1006500008BF5FEA500E50F1000041EB045170BD3D
:1006600006F0004646EA010140EA020081EA030181
:10067000B4EB5C04C2BFD4EB0C0541EA045170BD7D
:1006800041F480114FF0000E013C00F3AB8014F1F7
:10069000360FDEBF002001F0004170BDC4F1000440
:1006A000203C35DA0C341BDC04F11404C4F12005C1
:1006B00000FA05F320FA04F001FA05F240EA02001C
:1006C00001F0004221F0004110EBD37021FA04F652
:1006D00042EB06015EEA430E08BF20EAD37070BD0C
:1006E000C4F10C04C4F1200500FA04F320FA05F06B
:1006F00001FA04F240EA020001F0004110EBD3706D
:1007000041F100015EEA430E08BF20EAD37070BDDC
:10071000C4F1200500FA05F24EEA020E20FA04F3B5
:1007200001FA05F243EA020321FA04F001F0004164
:1007300021FA04F220EA020000EBD3705EEA430ED5
:1007400008BF20EAD37070BD94F0000F0FD101F004
:100750000046400041EB010111F4801F08BF013C3D
:10076000F7D041EA060195F0000F18BF704703F07B
:100770000046520043EB030313F4801F08BF013D02
:10078000F7D043EA0603704794EA0C0F0CEA1355BE
:1007900018BF95EA0C0F0CD050EA410618BF52EA78
:1007A0004306D1D181EA030101F000414FF000007E
:1007B00070BD50EA410606BF1046194652EA43068C
:1007C00019D094EA0C0F02D150EA013613D195EA00
:1007D0000C0F05D152EA03361CBF104619460AD148
:1007E00081EA030101F0004141F0FE4141F4700152
:1007F0004FF0000070BD41F0FE4141F4780170BD42
:1008000070B54FF0FF0C4CF4E06C1CEA11541DBFA6
:100810001CEA135594EA0C0F95EA0C0F00F0A7F8A8
:10082000A4EB050481EA030E52EA03354FEA0131D5
:1008300000F088804FEA03334FF0805545EA1313E8
:1008400043EA12634FEA022245EA111545EA1065B0
:100850004FEA00260EF000419D4208BF964244F147
:10086000FD0404F5407402D25B084FEA3202B61A66
:1008700065EB03055B084FEA32024FF480104FF43A
:10088000002CB6EB020E75EB030E22BFB61A7546AE
:1008900040EA0C005B084FEA3202B6EB020E75EB41
:1008A000030E22BFB61A754640EA5C005B084FEAA9
:1008B0003202B6EB020E75EB030E22BFB61A754676
:1008C00040EA9C005B084FEA3202B6EB020E75EB81
:1008D000030E22BFB61A754640EADC0055EA060E42
:1008E00018D04FEA051545EA16754FEA06164FEA85
:1008F000C30343EA52734FEAC2025FEA1C1CC0D131
:1009000011F4801F0BD141EA00014FF000004FF0BD
:10091000004CB6E711F4801F04BF01430020B4F17E
:10092000FD0C88BFBCF5E06F3FF6AFAEB5EB030C36
:1009300004BFB6EB020C5FEA500C50F1000041EB33
:10094000045170BD0EF0004E4EEA113114EB5C0400
:10095000C2BFD4EB0C0541EA045170BD41F48011D3
:100960004FF0000E013C90E645EA060E8DE60CEADB
:10097000135594EA0C0F08BF95EA0C0F3FF43BAFF8
:1009800094EA0C0F0AD150EA01347FF434AF95EAAF
:100990000C0F7FF425AF104619462CE795EA0C0F93
:1009A00006D152EA03353FF4FDAE1046194622E760
:1009B00050EA410618BF52EA43067FF4C5AE50EA3A
:1009C00041047FF40DAF52EA43057FF4EBAE12E72A
:1009D00053B94AB9002908BF00281CBF4FF0FF31A6
:1009E0004FF0FF3000F07AB9ADF1080C6DE904CE9C
:1009F00000F006F8DDF804E0DDE9022304B07047FA
:100A00002DE9F0478C460D460446089E002B51D137
:100A10008A4217466DD9B2FA82FEBEF1000F0BD0A2
:100A2000CEF1200C01FA0EF520FA0CFC02FA0EF7BA
:100A30004CEA050C00FA0EF44FEA174A250CBCFBF1
:100A4000FAF81FFA87F90AFB18CC45EA0C4508FBAF
:100A500009F3AB420AD9ED1908F1FF3280F0238186
:100A6000AB4240F22081A8F102083D44ED1AA4B245
:100A7000B5FBFAF00AFB105544EA054400FB09F9FE
:100A8000A14509D9E41900F1FF3380F00A81A1459D
:100A900040F2078102383C44A4EB090440EA0840D4
:100AA0000021002E61D024FA0EF40023346073601C
:100AB000BDE8F0878B4207D9002E54D0002186E88C
:100AC00021000846BDE8F087B3FA83F1002940F021
:100AD0008E80AB4202D3824200F2FA80841A65EB28
:100AE00003050120AC46002E3FD086E81010BDE87B
:100AF000F08712B90127B7FBF2F7B7FA87FEBEF10C
:100B0000000F34D1EB1B3A0C1FFA87FC0121B3FB19
:100B1000F2F8250C02FB183345EA03450CFB08F3F9
:100B2000AB4207D9ED1908F1FF3002D2AB4200F217
:100B3000D1808046ED1AA3B2B5FBF2F002FB10554E
:100B400043EA05440CFB00FCA44507D9E41900F175
:100B5000FF3302D2A44500F2B8801846A4EB0C047F
:100B600040EA08409DE731463046BDE8F087CEF1C7
:100B7000200405FA0EF307FA0EF720FA04F83A0CEF
:100B800025FA04F448EA0308B4FBF2F14FEA1845E9
:100B900002FB11441FFA87FC45EA044501FB0CF3F4
:100BA000AB4200FA0EF409D9ED1901F1FF3080F0E3
:100BB0008A80AB4240F2878002393D44EB1A1FFA2B
:100BC00088F5B3FBF2F002FB103345EA034500FB66
:100BD0000CF3AB4207D9ED1900F1FF386FD2AB42ED
:100BE0006DD902383D44EB1A40EA01418FE7C1F16B
:100BF000200722FA07F88B4005FA01F448EA0303BC
:100C000020FA07FE4FEA134CFD404EEA040EB5FBF6
:100C1000FCF94FEA1E440CFB19551FFA83F844EA0D
:100C2000054509FB08F4AC4202FA01F200FA01FAA8
:100C300008D9ED1809F1FF3043D2AC4241D9A9F1EE
:100C400002091D442D1B1FFA8EFEB5FBFCF00CFBA8
:100C500010554EEA054400FB08F8A04507D9E418F2
:100C600000F1FF3529D2A04527D902381C4440EABB
:100C70000940A4EB0804A0FB02894C45C6464D463A
:100C800015D312D056B1BAEB0E0364EB050404FA87
:100C900007F7CB401F43CC40376074600021BDE8AC
:100CA000F0871846F8E69046E0E6C245EAD2B8EB8F
:100CB000020E69EB03050138E4E72846D7E7404612
:100CC00091E78146BEE7014678E702383C4445E7B4
:100CD000084608E7A8F102083D442BE7704700BF2B
:100CE000034613F8012B002AFBD1181A013870476C
:100CF00001F0FF01102A2BDB10F0070F08D010F8CD
:100D0000013B013A8B422DD010F0070F42B3F6D1D0
:100D1000F0B441EA012141EA014122F007047FF0E9
:100D200000070023F0E80256083C85EA010586EA40
:100D3000010685FA47F5A3FA87F586FA47F6A5FA7C
:100D400087F68EB9EED1F0BC01F0FF0102F0070288
:100D500032B110F8013B013A83EA010313B1F8D133
:100D60000020704701387047002D06BF3546033814
:100D7000073815F0010F07D1013015F4807F02BF4D
:100D8000013015F4C03F0130F0BC0138704700BF9E
:100D90002DE9F8430D46B0F88A12044608444E1C6B
:100DA0007E2380F8C131A3192A8883F8C121237AD0
:100DB0008A1CFF2B18BF0133224414BFDBB201236E
:100DC000237282F8C131B5F8CC2080F8C52106F233
:100DD000C113E618C2F3072780F8C47196F801E042
:100DE000E35CB778F67883EA0E0383F07E037B40FA
:100DF000734080F8C631C2B9062307261844812300
:100E000080F8C131E57815B10020BDE8F8833144A0
:100E100089B204F2C11007F00DFC002840F0C18037
:100E2000A4F88A020120BDE8F88301F2C711EF1C83
:100E30006018394607F058FEB5F8CC60B4F88A124D
:100E40005FFA86FC0CF1FF395FFA89F9F01D06F1B3
:100E50000608B9F1310F80B211FA88F800F2A980C2
:100E6000ACF10402C2F3850201324FEA820EB9F1FD
:100E7000060F5FFA8EFE49D9012AD5F8033048D112
:100E8000C3F307225A40C3F307456A4082EA13635B
:100E9000F445DBB232D00EF1010217F80E50D2B297
:100EA000944583EA050329D9BD5C0EF10202D2B252
:100EB0006B409445DBB221D9BD5C0EF10302D2B286
:100EC000944583EA050319D9BD5C0EF10402D2B240
:100ED000944583EA050311D9BD5C0EF10502D2B237
:100EE000944583EA050309D9BD5C0EF10602D2B22E
:100EF000944583EA050301D9BA5C5340A0440836FF
:100F000088F8C131B6B20346601877E700239E46E1
:100F1000C1E7D5F80790022A89EA0303B0D0D5F8D3
:100F20000B90032A89EA0303AAD0D5F80F90042A6C
:100F300089EA0303A4D0D5F81390052A89EA0303AC
:100F40009ED0D5F81790062A89EA030398D0D5F8E1
:100F50001B90072A89EA030392D0D5F81F90082A2C
:100F600089EA03038CD0D5F82390092A89EA030380
:100F700086D0D5F827900A2A89EA030380D0D5F8CD
:100F80002B900B2A89EA03033FF47AAFD5F82F9010
:100F90000C2A89EA03033FF473AFD5F8332053409A
:100FA0006EE7B4F88A321E442846A4F88A62BDE887
:100FB000F8830023A2E700BF0378990714D4144BE9
:100FC0001A7C8AB901218270197458600278C1783C
:100FD00042F002020270027802F0FE02027001B9D1
:100FE00041600278120600D470470278910708D554
:100FF0000278120606D4D860037843F080030370A9
:1010000070477047027802F07F020270F3E700BF7A
:10101000100200200378DB071DD470B5C6781EB11E
:10102000B0F8BE01C0B270BDB0F9D240002CF7D00C
:101030000546B0F8BE01D8302844224605F1090122
:1010400007F052FDB5F8BE01A5F8D260204480B289
:10105000A5F8BE01E6E70020704700BF002800F0B9
:10106000CE802DE9F8430378DB074AD4B0F88A72C2
:10107000C61907F1010E7E2386F8C13100EB0E037D
:101080000A8883F8C121037ABA1CFF2B18BF0133E9
:10109000024414BFDBB20123037282F8C131B1F8FC
:1010A000CC2086F8C52104460EF2C113C2F30720F6
:1010B0000D46E11886F8C40191F801E0E35C8878F8
:1010C000C97883EA0E0383F07E0343404B4086F8E1
:1010D000C631CAB906234FF007081E44812386F89B
:1010E000C131E5786DB907EB080189B204F2C1108E
:1010F00007F0A0FA00287AD1A4F88A020120BDE8FE
:10110000F8830020BDE8F88307F2C71005F1030952
:101110002044494607F0E8FCB5F8CC80B4F88A7260
:101120005FFA88F000F1FF3C5FFA8CFC08F10706DB
:1011300008F1060EBCF1310FB6B217FA8EFE00F2BE
:10114000AC80021FC2F3850201329100BCF1060F90
:10115000C9B240F29F80012AD5F8033050D1C3F3C1
:1011600007225A40C3F307456A4082EA1363884264
:10117000DBB232D04A1C19F80150D2B2904283EA55
:1011800005032AD919F802508A1CD2B26B4090424A
:10119000DBB222D919F80250CA1CD2B2904283EABB
:1011A00005031AD919F802500A1DD2B2904283EAF7
:1011B000050312D919F802504A1DD2B2904283EAAF
:1011C00005030AD919F802508A1DD2B2904283EA67
:1011D000050302D919F802205340A64408F1080873
:1011E0008EF8C1311FFA88F83346E61975E7B4F86E
:1011F0008A3298442846A4F88A82BDE8F88370476A
:10120000D5F807C0022A8CEA0303A8D0D5F80BC092
:10121000032A8CEA0303A2D0D5F80FC0042A8CEA73
:1012200003039CD0D5F813C0052A8CEA030396D09B
:10123000D5F817C0062A8CEA030390D0D5F81BC056
:10124000072A8CEA03038AD0D5F81FC0082A8CEA43
:10125000030384D0D5F823C0092A8CEA03033FF4A2
:101260007EAFD5F827C00A2A8CEA03033FF477AF94
:10127000D5F82BC00B2A8CEA03033FF470AFD5F8E6
:101280002FC00C2A8CEA03033FF469AFD5F8332052
:10129000534064E7002319466CE700239DE700BF35
:1012A0001D4970B500230524F62606250D2281F878
:1012B0008140A1F87C60A1F8485181F8822081F832
:1012C0007F3081F8803081F8833081F884300446A3
:1012D00010B10378DB0718D5B4F88A1261B104F2B3
:1012E000C115E3784BB14FF4967001F0F3FEB4F8FA
:1012F0008A120029F5D170BD70BD284607F09AF911
:101300000028F0D1A4F88A0270BD7C31FFF740FDBF
:101310000028E1D070BD00BF100200202DE9F84F79
:10132000044608460E46FFF7DBFC85B29D4FC82DEC
:1013300028BFC82531462A4607F17F00F926A7F8BD
:101340007C6007F0D1FBA7F8485114B12378DB0784
:1013500001D5BDE8F88FB4F88A12481C621823182A
:101360004FF07E0E82F8C1E183F8C161237A8E1CB2
:10137000FF2B18BF0133264414BFDBB2012300F258
:10138000C1102372C5F3072E86F8C131261882F8E2
:10139000C55182F8C4E1235C96F801C096F802E0DA
:1013A000F07883EA0C0383F07E0383EA0E03434064
:1013B00082F8C631ADB94FF0060907254A448123AA
:1013C00082F8C131E378002BC3D1294489B204F2F9
:1013D000C11007F02FF9002840F09B80A4F88A0282
:1013E000B7E701F2C71160182A466F4907F07CFB86
:1013F000B7F848E1B4F88A125FFA8EF6751EEDB2BE
:101400000EF107090EF10608312D1FFA89F911FABC
:1014100088F800F2C180082E94BF32460122012ACA
:1014200097F87F3000F0B68097F88000022A83EAB0
:10143000000300F0AF8097F88100032A83EA0003DD
:1014400000F0A88097F88200042A83EA000300F0E5
:10145000A18097F88300052A83EA000300F09A80B0
:1014600097F88400062A83EA000300F0938097F837
:101470008500082A83EA000340F0908097F88600F0
:101480009446434096423BD0A6EB020A5FFA8AFAA2
:10149000AAF10400C0F38500AD1A0130EDB24FEAA5
:1014A000800B022D5FFA8BFB14D97F32012807EBEA
:1014B0000205BA5834D1C2F3072050404340C2F36A
:1014C00007404340DC4483EA1263DA455FFA8CFC50
:1014D000DBB215D034480CF101021CF80050D2B236
:1014E000964283EA05030BD9125C0CF1020C5FFAF9
:1014F0008CFC53406645DBB202D91CF800205340F7
:10150000A0440EF1080E88F8C1311FFA8EF562185A
:1015100054E7B4F88A321D44A4F88A52BDE8F88F23
:101520006F68022882EA0702C5D0AF68032882EA02
:101530000702C0D0EF68042882EA0702BBD02F69F7
:10154000052882EA0702B6D06F69062882EA0702F8
:10155000B1D0AF69072882EA0702ACD0EF6908284A
:1015600082EA0702A7D02F6A092882EA0702A2D0DE
:101570006F6A0A2882EA07029DD0AF6A0B2882EAC6
:10158000070298D0EF6A0C2882EA070293D0286BF2
:10159000424090E7944675E70023B1E74FF0070C0F
:1015A00070E700BF100200208F0200202DE9F047F5
:1015B0004D4DDDF820A085F87F101F460021FA234D
:1015C000044685F88070A5F87C3085F8811085F890
:1015D000821085F88310C7B3101D05F1840305F14F
:1015E000880E964588BF984271D8082F6FD9A7F109
:1015F0000408C8F3850808F101084FEA88095FFA72
:1016000089F9104601315FFA81FE50F8046B43F806
:10161000046BF045F6D84F4517D009F1010105EBF1
:101620000903C9B212F8090083F884008F420CD96B
:1016300009F102036818DBB2515C80F884109F4204
:1016400003D9E918D35C81F884305046FFF748FB92
:1016500000BB804605374744A5F8487114B123788C
:10166000DB0729D504F2C1154FF4967001F032FD65
:10167000B4F88A1249B1E378002BF5D1284606F078
:10168000D9FF0028F0D1A4F88A020520BDE8F04770
:1016900001F020BD00F11403C82B84BF4FF0B40843
:1016A000404607F1840398BF1FFA80F8024651466E
:1016B000E81807F019FACDE70C492046FFF768FB58
:1016C0000028CFD00520BDE8F04701F003BD781E0B
:1016D000074952FA80F0013A12F8013F01F8013F40
:1016E0008242F9D1B1E700BF100200208C02002035
:1016F00093020020B0F88A1271B1C3780BB10020B8
:10170000704710B5044600F2C11006F093FF28B9E7
:10171000A4F88A02012010BD01207047002010BDEE
:10172000704700BF2DE9F04106460D46FFF7F8FF70
:10173000B6F8BE719FB196F8D8307E2B00F00981C3
:10174000781E80B206F1D802002303E012F8011FD0
:101750007E2909D083429CB203F10103F6D1002017
:10176000A6F8BE01BDE8F0810234A4B2002CF6D088
:10177000A04604F1D803211DF21816F803C05378CF
:1017800092F802E0D07883EA0C03721883F07E03AB
:1017900092F8D82083EA0E0343409A4226D1B044FF
:1017A000A21C98F8D8302B8016FA82F2E31C16FAA5
:1017B00083F392F8D81093F8D8304FF00002053434
:1017C00061F30F22A4B263F30702BC42A5F86820BC
:1017D00092B247DA002A41D1344494F8D830812BB0
:1017E0005AD188F8D7200120BDE8F081834D00232D
:1017F000FA2102221846A5F87C1085F87F2085F88A
:10180000803085F8813085F8823085F88330FFF7A5
:1018100067FAEC6848BB0527A5F8487114B123782E
:10182000D90732D504F2C1154FF4967001F052FC7D
:10183000B4F88A1249B1E378002BF5D1284606F0B6
:10184000F9FE0028F0D1A4F88A020520464401F0F0
:1018500041FC002086F8D700BDE8F0811319013360
:101860009F4250DC0020BDE8F08100F11403C82B3A
:101870008CBFB420471D02464FF00001604894BF62
:10188000BFB2B92707F030F9C6E75E492046FFF737
:101890007FFA0028D9D1C5E7584DFA210323104615
:1018A00085F8802085F8812085F8822085F88320BE
:1018B000A5F87C1085F87F30FFF712FAEC68C0BB02
:1018C0000526A5F848611CB12378DA0740F1858028
:1018D00004F2C1154FF4967001F0FCFBB4F88A12C3
:1018E00049B1E378002BF5D1284606F0A3FE002885
:1018F000F0D1A4F88A02052001F0ECFB002088F862
:10190000D700BDE8F08104F1D8013144E81C07F0AC
:10191000EBF8B5F8683001331C4416FA84F696F8F3
:10192000D830812B1BD1002388F8D7300120BDE8A7
:10193000F08100F11403C82B8CBFB420461D024671
:101940004FF000012E4894BFB6B2B92607F0CCF88C
:10195000B7E74FF0010844460521D9230CE7274D8E
:1019600000230322FA21184685F87F20A5F87C1071
:1019700085F8803085F8813085F8823085F88330AD
:10198000FFF7AEF9EC68024600282DD000F11403F1
:10199000C82B94BF461DB4224FF00001184894BFD5
:1019A000B6B2B92607F0A0F8A5F8486114B12378BB
:1019B000DB071BD504F2C1154FF4967001F08AFBCA
:1019C000B4F88A12002996D0E378002BF4D1284687
:1019D00006F030FE00288CD0EEE70A492046FFF7DB
:1019E000D7F9002887D173E70526DDE705492046AA
:1019F000FFF7CEF900287FF47EAFDBE7100200206E
:101A0000940200208C020020037A29B1FF2B1ABF18
:101A10000133DBB201230372184670470378417823
:101A20008278C0784B4083F07E0353405840704723
:101A300010B50D4C0D484FF4A672002107F05FF869
:101A4000204600214FF4237207F059F8237843F021
:101A500001032370237843F0800320462370002184
:101A6000BDE81040FFF7A8BA5C0300201002002078
:101A70002DE9F04383B00646FFF7CCFA062840F282
:101A8000A580DFF85C81DFF85C9100244146304698
:101A9000A8F11205E7B2FFF745FE50B36B8AF12BB0
:101AA0004DD014D8EB2B46D032D9ED2B6ED0EF2B86
:101AB00026D199F80030DBB20F2B04D074D9352B26
:101AC00001D03C2B4FD10D2000F0A4FF09E0F72BF3
:101AD00051D012D8F32B3FD0F52B11D13046FFF760
:101AE000DFFB013441463046E7B2FFF71BFE00281A
:101AF000D4D1384603B0BDE8F083F93B012BF0D9CF
:101B0000002300931A4601213046FFF74FFDE8E716
:101B10006E2BF5D13049B5F87A20A5F848216F230E
:101B200001F16A00A5F87C3006F0DEFF2B49304653
:101B3000FFF794FAD5E7B42000F06CFFD1E799F8ED
:101B40000030DBB2352B32D03C2B01D00F2B0AD129
:101B5000322000F05FFFC4E799F80030DBB2352B8C
:101B600030D03C2B2ED0002300931A460B21304658
:101B7000FFF71CFDB5E7F82200231849A5F87C20E3
:101B80003046A5F84831FFF769FAAAE7EE220023AC
:101B90001249A5F87C203046A5F84831FFF75EFAD7
:101BA000F02000F037FF9CE70A2BDCD18BE7002305
:101BB000F2220A49E868A5F84831A5F87C20FFF729
:101BC0004DFA8EE7372000F025FF8AE700273846D8
:101BD00003B0BDE8F08300BF250200208C02002086
:101BE00022020020F401002041F67C732DE9F0412F
:101BF000C55C40F6F677EDB207FB05F7C61906F5AA
:101C0000FD560836002382B0F47BF37341F66F74FF
:101C100096F810E03374ADF806308DF80530035DAA
:101C200007F5FC5406340444002B40F09880ADF8CE
:101C30000610BDF806309BB29A4240F28180BDF892
:101C400006309BB2143300EB430341F6747ED9880F
:101C500030F80E3009B21BB2994200F31C82BDF875
:101C600006309BB2143300EB430341F6767CD988EF
:101C700030F80C3009B21BB29942C0F20C8200F568
:101C8000FB518644844413311FE0BDF806309BB2FB
:101C9000143300EB4303B3F80680BEF800300FFAAC
:101CA00088F81BB2984500F3F681BDF806309BB268
:101CB000143300EB4303B3F80680BCF800300FFA8E
:101CC00088F81BB29845C0F2E681B6F80F30BDF82F
:101CD00006800A331FFA88F807EB830308F114081B
:101CE000034400EB480803F5FC53B8F80680A3F85A
:101CF0001180B6F80F30BDF806800A331FFA88F855
:101D000007EB830308F2E478034400EB480803F58B
:101D1000FC53B8F80680A3F81380B6F80F300133EF
:101D2000A6F80F3091F80080BDF8063018FA83F35A
:101D30009BB2ADF80630BDF806309BB29342A4D3F7
:101D400040F6F67303FB050303F5FD560836BDF8B0
:101D50000610B6F80F6089B2002E40F06B8141F694
:101D60006F73C35C002B00F09B80ADF80610BDF8CC
:101D700006309BB29A4240F28B80BDF806309BB28F
:101D8000143300EB430341F67476D988835B09B2C0
:101D90001BB2994278DBBDF806309BB2143300EBDE
:101DA000430341F67677DB88C15B1BB209B29942E7
:101DB0006ADB00F5FB510644074413314FF0000E77
:101DC0008DF805E09DF805300E2B33D8B4F831C0FE
:101DD000BDF806309DF8058018FA83F314330CF132
:101DE0000A0C00EB430304EB8C0CDB88ACF80B30E3
:101DF000B4F831C0BDF806309DF8058018FA83F3B9
:101E000003F2E4730CF10A0C00EB430304EB8C0CBB
:101E1000DB88ACF80D30B4F831300133A4F8313040
:101E20009DF805300133DBB28DF805309DF80530A3
:101E30000E2BCBD991F800C0BDF806301CFA83F305
:101E40009BB2ADF80630BDF806309BB29A421FD95E
:101E5000BDF806309BB2143300EB4303B3F806C061
:101E600033880FFA8CFC1BB29C450DDBBDF80630A5
:101E70009BB2143300EB4303B3F806C03B880FFA60
:101E80008CFC1BB29C459BDD41F66F730021C15455
:101E9000BDF80610B4F8313089B2002B40F0A180B3
:101EA00041F66F73C35C002B40F09580ADF80610CF
:101EB000BDF806309BB29A4273D9BDF806309BB28A
:101EC000143300EB430341F67476D988835B09B27F
:101ED0001BB2994200F3E480BDF806309BB2143384
:101EE00000EB430341F67677D988C35B09B21BB296
:101EF0009942C0F2D58000F5FB51064407441331E6
:101F00001DE0BDF806309BB2143300EB4303B3F879
:101F100006E033880FFA8EFE1BB29E4500F3C080A8
:101F2000BDF806309BB2143300EB4303B3F806E070
:101F30003B880FFA8EFE1BB29E45C0F2B180B4F80A
:101F400031E0BDF806309BB214330EF10A0E00EBFF
:101F5000430304EB8E0EDB88AEF80B30B4F831E0AF
:101F6000BDF806309BB203F2E4730EF10A0E00EBEB
:101F7000430304EB8E0EDB88AEF80D30B4F831303D
:101F80000133A4F8313091F800E0BDF806301EFAB4
:101F900083F39BB2ADF80630BDF806309BB29A428F
:101FA000AFD8B4F83130B3B1012384F8303023789E
:101FB0002BB194F8303043F0800384F8303000F5D2
:101FC000FC53012222701A6801321A6001351B6825
:101FD000E36205F00F0541F67C73C55402B0BDE81D
:101FE000F081022384F8303023782BB194F830301C
:101FF00043F0800384F83030012300F5FC57237050
:1020000063701D443B6805F00F0540F6F67606FB4D
:1020100005F601333B6083193F68E76203F5FD5322
:1020200006F5FC540026DF7DDE7506341F7E1E7625
:10203000044435E741F6B67401261E5541F686760E
:102040009E5D1EB11E5D46F080061E5540F6F6737D
:1020500003FB050641F6867E012406F80E4000F5D6
:10206000FC540135276805F00F0503FB05FC01371B
:10207000276006F5FD5600EB0C032768C6F81270C2
:1020800003F5FD530026DF7DDE750CEB0E041F7E8D
:102090001E76044463E641F66F730121C1544FE696
:1020A00041F66F730122C254B4F83130002B92D044
:1020B0007AE700BF03781BB141F66E73C35C2BB99E
:1020C00041F66E7201238354184670470020704712
:1020D0000378024603F0FF003BB141F66E71535C9A
:1020E00003F0FF000BB100235354704738B5037859
:1020F00003F0FF05BBB141F66E730022C2540446E3
:10210000006A03F033FA606A03F030FA606803F0A3
:102110002DFAA06803F08EFBA068216903F0C6FCCD
:10212000A06803F059FB284638BD00BFC54B9A6B29
:10213000824200D07047F0B51A78022A06D0032AEE
:1021400000F05E81012A00F0DB80F0BD1A7D002ADC
:10215000FBD041F682729A5C002AF6D041F6947167
:1021600041F683745A58B84D01325A5041F6847082
:1021700041F685720021195519549954AE1C6F1EF1
:1021800001F1140203EB4202548B288824B200B2FE
:10219000844200F34881508B328800B212B29042E0
:1021A000C0F241813A78114489B2B1F57A7FE7D320
:1021B00041F683729A5C02F0FF01EAB9A34DAE1CAE
:1021C0006F1F0BE0508B328800B212B290420FDBCF
:1021D0003A78114489B2B1F57A7F0DD201F2E472F6
:1021E00003EB4202548B288824B200B28442E9DD1A
:1021F00041F683720121995441F683729A5C002A58
:10220000A3D041F6907140F6F6725D5CEDB202FB30
:10221000053241F69A71515C79B141F68471595C8D
:10222000002900F0088141F69C71515C002940F0C2
:10223000028141F685720121995440F6F67404FB3F
:1022400005F41E1906F5FD500830002190F82320F2
:1022500080F8231090F8242080F82410B0F8232070
:102260000A3201F1140704EB82021A4403EB470718
:1022700002F5FC527F8BA2F82570B0F823200A32B9
:1022800001F2E47704EB82021A4403EB470702F5FC
:10229000FC527F8BA2F82770B0F823200131013265
:1022A000B1F57A7FA0F82320D8D1B0F82320002AF6
:1022B0003FF44BAF41F6CA720221B15441F6857129
:1022C000595C19B1B15C41F08001B15440F6F6722D
:1022D00002FB053541F69A7141F69B7001226A5462
:1022E0002A5441F684715A5C41F69C71D2B26A5408
:1022F00041F6947205F5FD559A58C5F8262074E00C
:102300001A7D002A3FF421AF41F682729A5C002ABE
:102310003FF41BAF41F694715A5801325A50DA6BB0
:10232000D2F8141200297FF410AF41F6907240F6F3
:10233000F6749E5C464DF6B204FB06F41F1907F5D1
:10234000FD50083090F8232080F8231090F82420C6
:1023500080F82410B0F823200A3201F1140E04EBA7
:1023600082021A4403EB4E0E02F5FC52BEF81AE04C
:10237000A2F825E0B0F823200A3201F2E47E04EB53
:1023800082021A4403EB4E0E02F5FC52BEF81AE02C
:10239000A2F827E0B0F823200132A0F823202A7801
:1023A000114489B2B1F57A7FD4D3B0F82320002A42
:1023B0003FF4CBAE41F6CA720221B95441F69A718C
:1023C000795C19B1B95C41F08001B95440F6F672FC
:1023D00002FB063641F69A720121B15441F694721D
:1023E00006F5FD569A58C6F8262041F690715A5CBB
:1023F0000132D2B25A545A5C02F00F025A54F0BD64
:102400001A7D002A3FF4A1AE41F682729A5C002A3E
:102410003FF49BAE03F114004FF47A720021BDE843
:10242000F040FFF7E1BB41F6837041F68471012271
:102430001A545A54BCE641F6CA71535C43F0400347
:102440005354F0BDE80500207025002074250020BD
:102450006F250020C94B9A6B824200D07047F0B5BF
:102460001A78022A06D0032A00F06481012A00F0BB
:10247000DF80F0BD1A7D002AFBD041F682729A5CA3
:10248000002AF6D041F6947141F683745A58BC4D37
:1024900001325A5041F6847041F6857100221A5576
:1024A0001A545A54AE1C6F1E4FF47A7404F114027D
:1024B00003EB4202508B298800B209B2884200F334
:1024C0004D81518B328809B212B29142C0F24681DD
:1024D0003A781444A4B2B4F5FA6FE7D341F68372A4
:1024E0009A5CFAB9A74D4FF47A74AE1C6F1F0BE0DB
:1024F000518B328809B212B291420FDB3A78144400
:10250000A4B2B4F5FA6F0DD204F2E47203EB420206
:10251000508B298800B209B28842E9DD41F6837206
:102520000121995441F683729A5C002AA1D041F6A8
:10253000907140F6F6725D5CEDB202FB053241F639
:102540009A71515C79B141F68471595C002900F0AF
:102550000D8141F69C71515C002940F0078141F6E4
:1025600085720121995440F6F67404FB05F41E1996
:1025700006F5FD500830002290F8231080F8232043
:1025800090F8241080F824204FF47A71B0F82320BA
:102590000A3201F1140704EB82021A4403EB4707E5
:1025A00002F5FC527F8BA2F82570B0F823200A3286
:1025B00001F2E47704EB82021A4403EB470702F5C9
:1025C000FC527F8BA2F82770B0F823200131013232
:1025D000B1F5FA6FA0F82320D8D1B0F82320002A53
:1025E0003FF447AF41F6CA720221B15441F68571FA
:1025F000595C19B1B15C41F08001B15440F6F672FA
:1026000002FB053541F69A7141F69B7001226A542E
:102610002A5441F684715A5C41F69C71D2B26A54D4
:1026200041F6947205F5FD559A58C5F8262076E0D6
:102630001A7D002A3FF41DAF41F682729A5C002A8F
:102640003FF417AF41F694715A5801325A50DA6B81
:10265000D2F81422002A7FF40CAF41F6907140F6B4
:10266000F6745E5C484DF6B204FB06F41F1907F5DC
:10267000FD50083090F8231080F8232090F82410A3
:1026800080F824204FF47A71B0F823200A3201F147
:10269000140E04EB82021A4403EB4E0E02F5FC52B8
:1026A000BEF81AE0A2F825E0B0F823200A3201F2C1
:1026B000E47E04EB82021A4403EB4E0E02F5FC5258
:1026C000BEF81AE0A2F827E0B0F823200132A0F803
:1026D00023202A78114489B2B1F5FA6FD4D3B0F827
:1026E0002320002A3FF4C5AE41F6CA720221B95434
:1026F00041F69A71795C19B1B95C41F08001B95425
:1027000040F6F67202FB063641F69A720121B15488
:1027100041F6947206F5FD569A58C6F8262041F601
:1027200090715A5C0132D2B25A545A5C02F00F02D4
:102730005A54F0BD1A7D002A3FF49BAE41F68272D6
:102740009A5C002A3FF495AE03F114004FF4FA624C
:102750004FF47A71BDE8F040FFF746BA41F6837056
:1027600041F6847101221A545A54B7E641F6CA71EF
:10277000535C43F040035354F0BD00BFE805002014
:1027800070250020742500206F250020F0B515B2BB
:10279000164605EB850202EB82020027920095B0F7
:1027A00080E88200876007614761C26004461F4677
:1027B00002F094FF002840F0818014A94FF4805368
:1027C00041F8483D204603F08FFB002870D1204699
:1027D00003F04AF8002865D1204603F0C5F8002828
:1027E0005AD10023694620460093019303F03CFC34
:1027F00000284BD1731E03EB83039B00322212FB94
:10280000063606A900231A9A0796204606930893CF
:1028100009930A930B930C9303F080F900282FD1AE
:10282000C5EBC503C5EBC3053A4602266027042362
:1028300006A920460795069708960A9303F048FADA
:10284000C0B900234FF400520DA920460D930E93FA
:102850000F93109311931393129203F02BFC20B15A
:1028600040F21721184805F037FB204605F00AFE14
:1028700015B0F0BD40F20B21134805F02DFBE0E749
:1028800040F2FF11104805F027FBC9E740F2F311B1
:102890000D4805F021FBADE740F2E9110A4805F0CB
:1028A0001BFB9EE74FF4F271074805F015FB93E719
:1028B00040F2DF11044805F00FFB88E740F2D91120
:1028C000014805F009FB78E78C9300082DE9F04FEB
:1028D00087B016469DF850409DF8605002914C4AD2
:1028E0000394002104469DF84CA00495BDF964B002
:1028F000BDF96890BDF96C80BDF970700593002535
:1029000006F0FDF8159B25706360A660059B109E80
:10291000E3602661119E6661129EA661169E84F890
:102920001CA02662179E666241F6727C029EA66219
:1029300041F6737E41F67A739DF80C6004F80C60E2
:1029400041F6747041F6767141F678729DF8106028
:1029500004F80E6024F800B024F8019024F80280F6
:10296000E75204F12E014FF4FA62206A02F03AFDB8
:1029700004F6CE714FF4FA62606A02F033FD41F65C
:102980007273A068E168E25C236966690096FFF7EC
:10299000FDFEA585636893F85030012B2DD0676844
:1029A000666860686268012304F12C0187F8503082
:1029B00031638386D586A068257F626800EB850039
:1029C0001268C0690C3200F0EDFC63681B681B687C
:1029D0005B0616D5A369A2681268D1680B43D36061
:1029E0006368A068002283F8502002F013FFA068FB
:1029F000216903F037F801232370012007B0BDE8F7
:102A0000F08F63681A68136843F040031360E1E7CE
:102A1000E81E010010B5504C23783728DBB282B095
:102A2000637000F08E80034621D80D2827D02ED861
:102A300005287FD00A2868D000285AD102464FF4D2
:102A400000414648237000F03DFF01224FF4004151
:102A5000424800F037FFA388414A9BB243F001038C
:102A6000FF200121A3801070517002B010BDC92851
:102A700021D8C82809D23C280FD0B42839D1384AE7
:102A80002370082102231170537002B010BD322848
:102A90000AD0352808D00F282BD1314A23700823BB
:102AA0001370537002B010BD2D4A237001231370B0
:102AB000537002B010BDF0282FD0FA2817D1294B3F
:102AC0001A7C002A44D10023254C244823701A463E
:102AD0004FF40041637000F0F5FE642000F0FAFA54
:102AE0000221012002B0BDE8104002F029B8D2282E
:102AF000CBD01C4B1A7C002AC7D0D8680023009387
:102B00001A460F21FEF752FDBFE7154A2070022139
:102B100008231170537002B010BDBFF34F8F1249DC
:102B2000124BCA6802F4E0621343CB60BFF34F8FCD
:102B300000BFFDE70A4A207003231370537002B0F0
:102B400010BD074B207001221A705A7002B010BDE0
:102B5000D868FEF7A5FBB6E7F401002000000240AC
:102B6000000000201002002000ED00E00400FA0543
:102B700010B51A4CA3790133DBB2A371A388DB072C
:102B800004D5174BA2791B789A4218D2A38813F068
:102B9000010306D1124AA0795178884201D31278F4
:102BA00002B910BD01224FF400410E48A37100F09C
:102BB00089FEA3889BB243F00103A38010BD0023CC
:102BC0001A464FF400410748A37100F07BFEA3882A
:102BD00023F001031B041B0CA380D7E7F4010020A2
:102BE0000000002000000240F0B5013AD2B20024FB
:102BF000072A85B04160047002D9002005B0F0BDFD
:102C000052000D46032742F040011E4601814FEA63
:102C1000132E044602AA2846009706253B468DF847
:102C200009608DF80AE08DF8085000F0D7FE002802
:102C3000E3D1218960680A9C9DF8286000973B4693
:102C400002AA0425240A8DF809608DF808508DF831
:102C50000A4000F0C3FEB0FA80F0400905B0F0BDB4
:102C6000F0B53F4B3F4A06468FB018460D4600214F
:102C70001C4605F044FF7168B2683068234607C3FC
:102C8000A278B18919800AB90F22A27063780BB9B2
:102C900001236370B4F9030020B96FF005012071BE
:102CA000E170FA20B4F9057037B96A264FF0FF31A8
:102CB0006671A1716FF09507B4F9076026B96FF0DE
:102CC00005012672E171FA26B4F9091041B94FF0F5
:102CD000FF314FF06A0EA17284F809E06FF09501A0
:102CE000DFF894E00C91DEF81812DFF890E00B9614
:102CF0000A9700260990089204931B4FCDF81CE018
:102D000001204FF400720823069705970390029262
:102D100000930196154B164AE6721648FFF7D6FD4A
:102D20002F4607F8050B6078FDF7DAFB02460B46E5
:102D300009A1D1E90001FDF763FD6FF0170203233C
:102D4000C5F805007960EE702E716A70AB700FB037
:102D5000F0BD00BFAFF300800000000080842E4172
:102D6000E8050020FC1E0100F426012000040140BB
:102D7000AC270120FC050020882801209C2601208A
:102D800003782DE9F04703F0FF05CBB141F66E73F0
:102D9000C35C03F0FF059BB1836AD3F81432002BA8
:102DA00040F0E28041F6847940F6F67710F8093079
:102DB00041F6867207FB03039B5C03F0FF0513B922
:102DC0002846BDE8F08710F80930DFF8EC810446AA
:102DD00007FB034341F6AC727E21995414F8093085
:102DE000744841F6AD7207FB03436421995414F80B
:102DF00009600121FEF708FEF6B207FB064641F620
:102E0000AE7341F68771F05414F8093007FB0343A1
:102E100003F5FD530833B3F80F3014F8092007FB0E
:102E200002429B009BB2525CDE1DB6B232B398F8F0
:102E30000B201ABB14F8092014F8091041F68A7CFB
:102E400007FB014141F6B17E31F80C10701C07FB05
:102E500002E20244C9B2A15414F8092014F809008E
:102E600007FB0040023630F80C0007FB02E737444E
:102E7000C0F3072203F10906E255B6B241F68477A2
:102E800040F6F679E35D41F6AF7209FB0343310A80
:102E90009954E35D41F6B07209FB0343F1B29954D2
:102EA00014F807A0E05D09FB004000F5FD500D306F
:102EB000FEF7B4FD5FFA8AFA41F6B17109FB0A4ADE
:102EC000731C0AF80100E25D09FB02121A44002398
:102ED000A354E35DB21C09FB031313448122E254A3
:102EE000E05D09FB004006F1080100F5FD5089B2E4
:102EF0000C3005F09FFB41F67C72A35CA25CDBB258
:102F0000934235D0013BE25D03F00F0393422FD093
:102F100041F6847240F6F670A35C98F80B6000FBF3
:102F2000034341F686770021D955A35C41F68777A4
:102F300000FB034341F6887ED955A35C00FB0343A5
:102F400041F68A7703F80E10A35C00FB0343D953C4
:102F50002EBB41F68472A35C0133DBB2A354A35CA5
:102F600003F00F03A3542BE700252846BDE8F087A4
:102F7000A36AD3F81432002BCAD04FF0FF324FF0BF
:102F8000FF3302E052EA0301C2D0A16AD1F8141261
:102F900012F1FF3243F1FF330029F3D1B8E7A35C0C
:102FA00000FB034000F5FC5020220C3005F0A7FD8B
:102FB000CFE700BF5C030020E8050020F8B50378E8
:102FC00003F0FF0453B141F66E73C35C03F0FF04DA
:102FD00023B1836AD3F8142212B100242046F8BD2D
:102FE00000F5FC500C4B0168C3F87F1001266427E4
:102FF0000B2503F17C01A3F88420A3F88620A3F815
:10300000882083F883600548A3F87C70A3F84851B2
:10301000FEF724F82046F8BD100200205C030020D3
:1030200010B5044C2046FFF753F82046BDE8104089
:10303000FFF75CB8FC05002070B50E4B0E4D1B6809
:103040002A7806464FF47A70B0FBF2F0B3FBF0F04A
:1030500000F0A6F808B90F2E01D9012070BD044672
:10306000024631464FF0FF3000F058F86E602046BF
:1030700070BD00BF1C0100200400002008B50B4BF0
:103080001A6842F400721A601A6842F480621A6088
:103090001A6842F480721A60032000F02DF80120B3
:1030A000FFF7CAFF05F054F8002008BD003C0240BD
:1030B000034A044B11681B780B441360704700BF30
:1030C000E424012004000020014B1868704700BF71
:1030D000E424012038B50446FFF7F6FF631C0546DB
:1030E00002D0044B1B781C44FFF7EEFF401B8442C8
:1030F000FAD838BD04000020074AD3684FF6FF0114
:103100000B40000243F0BF6300F4E06043F400337F
:103110000343D360704700BF00ED00E0184B70B46C
:10312000DC68C4F30224C4F10706042E04F104038E
:1031300028BF0426062B17D9033C0125A540013DD5
:103140002A400123B340013B1940A140002841EA35
:1031500002010CDB00F1604000F561400901C9B2D9
:1031600080F8001370BC704700221446E9E7054B55
:1031700000F00F0009010344C9B2197670BC704712
:1031800000ED00E0FCEC00E000F01F01012340092D
:10319000024A8B4042F82030704700BF00E100E057
:1031A0000138B0F1807F0ED2084B10B4084C586043
:1031B000F02084F823000022072110469A6019604D
:1031C0005DF8044B70470120704700BF10E000E03D
:1031D00000ED00E0044A136804280CBF43F0040328
:1031E00023F004031360704710E000E0704700BF55
:1031F00008B5FFF7FBFF08BDF8B50446FFF764FF0D
:10320000002C73D00222236884F835201A6800212C
:1032100022F0010284F8341005461A6005E0FFF739
:1032200053FF401B05283BD823681A68D107F6D402
:10323000A7686268E66825696169A0693A43324314
:103240002A430A43E169256A1F68354E02430A434F
:10325000616A2A433E40042942EA060227D01A60E6
:103260005A6922F007021143DAB22E4D5961103A21
:10327000A5FB021212092C4823F47F73815CE165DF
:1032800023F00303032A88BF04333F228A40012529
:103290000021A36508469A60616584F83550F8BD41
:1032A000032320226265184684F83530F8BDE56AAC
:1032B000216BA66A29430A431A605A6946F0040141
:1032C00022F007021143002DCED088B1B0F5005F87
:1032D00018D0022E03D9032EC6D1EA01C4D501238A
:1032E00040226265184684F83530F8BD0120F8BDEB
:1032F000012E03D0F1D3022EB6D1EEE7B5F1C07F97
:10330000B2D1ECE7032EAFD801A252F826F000BFED
:10331000DF320008DB320008DF320008FD3200082F
:103320003F8010F0ABAAAAAA68930008002832D008
:1033300090F83530DBB2022B02462AD003681748DA
:10334000D9B270B410391D68154EA0FB01010909EE
:10335000002025F0010521241D6018605860986048
:10336000D86018615C6123F47F73765CD66523F0C6
:103370000303032988BF04333F240021B44093652D
:1033800008469C60516582F8341082F8351070BC94
:103390007047184670470120704700BFABAAAAAA21
:1033A0006893000870B490F83440012C0CD090F869
:1033B00035400125AC4280F8345008D0002380F815
:1033C0003430022070BC7047022070BC7047046823
:1033D0000226002580F8356045652568866825F455
:1033E0008025402E256063600BBFA260A160E16074
:1033F000E260236843F0010323600020E2E700BF9E
:10340000F0B490F83440012C0DD090F83540866D22
:103410000125AC4280F8345008D0002380F83430C5
:103420000220F0BC70470220F0BC704704680227FD
:10343000002580F8357045652568876825F4802566
:10344000402F256063600ABFA260A160E160C16D8A
:1034500018BFE2603F238B40026CB360236843F0E7
:1034600016032360636943F0800363611AB1236824
:1034700043F008032360236843F001032360002026
:10348000CFE700BF70B50446866DFFF71DFE94F8C8
:103490003530022B06D080220023626584F8343058
:1034A000012070BD2368216C1A6822F016021A6090
:1034B0005A6922F0800205465A6131B31A6822F037
:1034C00008021A601A6822F001021A6005E0FFF78C
:1034D000FBFD401B05280FD823681B6813F0010370
:1034E000F5D1E16D3F228A400121B260184684F88F
:1034F000343084F8351070BD20220023032062652B
:1035000084F8343084F8350070BDA26C002AD5D11F
:10351000D8E700BFF0B583B00023876D0193C36D7A
:103520003D68624908229A40154204460E6803D05D
:1035300001680868400776D401229A40154203D0FA
:1035400021684969080668D404229A40154203D0CC
:103550002168096889075AD410229A40154203D07D
:103560002168086800073FD420229A40154203D002
:1035700021680868C00625D4636D0BB3636DDA0754
:103580001AD50523216884F835300B68484A23F0A2
:103590000103A2FB06020B60920A02E00B68DB0744
:1035A00004D5019B01339A420193F7D200220123F3
:1035B00084F8342084F83530E36C0BB1204698470A
:1035C00003B0F0BDBA6094F83520052A3BD00B68F3
:1035D00013F4802F0B6854D019035FD5E36B002BD5
:1035E000CAD020469847C7E7BA600A6812F4802F0D
:1035F0000A6822D1D20503D40A6822F008020A60C0
:10360000226C002AB0D020469047E36DACE7BA6048
:10361000626D42F0040262659EE7BA60626D42F03C
:103620000202626590E7086820F004000860BA6052
:10363000626D42F0010262657EE71103E0D5A26C83
:10364000002AE0D190E70A68206C22F016020A6096
:103650004A6922F080024A6120B30A6822F0080217
:103660000A603F22216D02FA03F300200122BB60B1
:1036700084F8340084F835200029A1D020468847FA
:103680009EE713F48073A9D10A68012022F010028A
:103690000A6084F8343084F835009FE7636C002BAF
:1036A0009FD169E7A26C002AD7D1DAE71C0100207C
:1036B000B5814E1B2DE9F04FD1F800C0DFF8FC8139
:1036C000DFF8FCE183B0002503E00135102D00F0A8
:1036D00093800123AB4003EA0C029342F5D14E687C
:1036E00026F0100ABAF1020F00F089804FEA45096E
:1036F0000324D0F800B004FA09F4E44306F0030709
:103700000BEA040B07FA09F70AF1FF3A47EA0B073D
:10371000BAF1010F076040F29880C7688B683C409F
:1037200003FA09F32343C360F300CED54FF0000939
:10373000CDF80490D8F8443043F48043C8F84430BE
:10374000D8F8444025F0030303F1804304F4804497
:1037500003F59C33019405F00304019FD3F808A0FE
:10376000A4000F27A7402AEA070A4E4FB8421AD0F2
:1037700007F58067B8427BD04B4FB8427DD04B4FA6
:10378000B8427FD04A4FB84200F08180494FB842DA
:1037900000F08280484FB8420CBF4FF006094FF04E
:1037A000070909FA04F94AEA09079F60DEF80030C0
:1037B000D443F70354BF23401343CEF80030DEF860
:1037C0000430B70354BF23401343CEF80430DEF86F
:1037D0000830F70254BF23401343CEF80830DEF818
:1037E0000C30B60205F1010554BF23401343102DE0
:1037F000CEF80C307FF46DAF03B0BDE8F08F4FEA28
:10380000D50900EB890905F00707D9F82040BF006A
:103810004FF00F0B0BFA07FB24EA0B0A0C69BC40B4
:1038200044EA0A04C9F820404FEA45090324D0F8C5
:1038300000A004FA09F4E44306F0030704EA0A0AC4
:1038400007FA09F747EA0A070760876807EA040AE0
:10385000CF6807FA09F747EA0A078760D0F804A09B
:10386000C6F300172AEA0303AF401F43476054E73B
:103870004FF0010909FA04F995E74FF0020909FA36
:1038800004F990E74FF0030909FA04F98BE74FF0C8
:10389000040909FA04F986E74FF0050909FA04F961
:1038A00081E700BF0000024000080240000C024017
:1038B000001002400014024000180240003802408C
:1038C000003C014002B909048161704743695940D5
:1038D00041617047044A5169014200D1704708B5FF
:1038E000506105F00FF808BD003C014000286CD085
:1038F000F8B590F83D30044603F0FF02002B4FD09E
:103900002268334D242384F83D30136823F00103EB
:10391000136001F00BFA2F4A61682368A2FB006272
:10392000920CA9425A6026D84900B0FBF1F0C0F3CE
:103930000B01013203291A6298BF0420E569D4F80B
:1039400020E02169E7686269A669D86145EA0E0549
:10395000394332431D609960DA601968002241F0F2
:103960000101202519601046226484F83D5022632D
:1039700084F83E20F8BD4FF49675174FA66805FBF6
:1039800002F2A7FB0252920901321A626EB901EBF0
:103990004101B0FBF1F0C0F30B029AB90120CDE771
:1039A00080F83C2004F018F8AAE701EB810101EB54
:1039B0008101B0FBF1F0C0F30B02002AEED040F41D
:1039C0004040BBE740F40040B8E70120704700BF2B
:1039D000A086010083DE1B43D34D62102DE9F04326
:1039E000044683B01F4688461646FFF76DFB94F8E1
:1039F0003D30202B03D0022003B0BDE8F083814688
:103A000006E0FFF761FBA0EB0900192800F299809E
:103A100023689A69D24312F00205F2D094F83C2050
:103A2000012AE8D01A680121D00784F83C1002D49A
:103A30001A680A431A601A68A14922F400621A60DF
:103A4000212284F83D20102284F83E2000222264A6
:103A50006785E162618DE26A6662042A218500F071
:103A6000AE80012A00F0AB8012F5803F00F0A78005
:103A7000226B122A00F0A3800A9A013240F08F8054
:103A80005A69D207FCD52269B2F5804F40F0C48054
:103A900008F0FE021A610A9A013204D0DDE05A6988
:103AA000560500F191805A699707F8D500220192D6
:103AB0005A6901929A690192019A228D002A00F0B6
:103AC0009E800A9A013246D15A69110614D45A6965
:103AD0005205F9D500226FF48065042020215D6134
:103AE000206484F83C20226384F83D10236C042B6E
:103AF00000F0E08003207FE7616A208D4A1C62624B
:103B00000A781A61628D013A92B262855D69421E3D
:103B100092B26E0722850AD54AB18A1C62624A783F
:103B20001A61628D013A023892B2208562850A9A42
:103B3000013222D15A695007BFD45A695105C9D4FC
:103B4000F8E72023256384F83C5084F83D300220B8
:103B500084F83E5050E75A691706CDD45A6950058B
:103B6000B8D40A9B002B6CD0FFF7AEFA0A9BA0EBEF
:103B70000900834265D32368A3E75A6952079CD49E
:103B80005A695505A6D40A9B002B5AD0FFF79CFA18
:103B90000A9BA0EB0900834253D32368C7E75A6905
:103BA000D7073FF570AF0A9B002B79D0FFF78CFA4F
:103BB0000A9BA0EB0900834272D323685CE71A6872
:103BC00042F480721A6057E71A6800216FF4806629
:103BD00042F40072042520201A605E61256484F896
:103BE0003C10216384F83D00236C236C042B4FF0C0
:103BF000000384F83C307FF47DAF0120FCE61968B7
:103C0000202541F400711960104684F83D5084F875
:103C10003C2084F83E20EFE64FEAE81202F006026C
:103C200042F0F0021A610A9A013203D027E05A6981
:103C30005005C9D45A691507F9D55FFA88F21A6197
:103C400029E7236C002243F020032021236484F819
:103C50003C20226384F83D1048E75A6995073FF5F8
:103C600025AF5A695205AFD40A9B5BB3FFF72CFA14
:103C70000A9BA0EB0900834224D323680BE75A690F
:103C80001107DAD45A6956059ED40A9BD3B1FFF7BF
:103C90001BFA0A9BA0EB0900834213D32368C2E7F7
:103CA00000232022236384F83C3084F83D2084F8EC
:103CB0003E309AE72268136843F4007313609CE770
:103CC0000000FFFF00232022236384F83C3084F8A7
:103CD0003D2089E7002800F00E822DE9F04F0446D0
:103CE0004FF003088DB0074680F8B98304F0B8FCA4
:103CF000206802F01DFC57F8106B0FCF6D460FC502
:103D00000FCF0FC597E8030085E80300231D304659
:103D10000B930ECB02F0A8FB0021206802F010FCF0
:103D2000002501264FF0020C4FF0040B4FF0050A5E
:103D30004FF008014FF00609072009220A2384F8F2
:103D40008C8084F870C084F8396084F8556084F8F9
:103D5000546084F8716084F88D6084F8A96084F8F8
:103D6000C56084F8385084F83B5025646564E56488
:103D700084F85750E5652566A56684F87350A567F5
:103D8000E567C4F8845084F88F50C4F89450C4F8A0
:103D90009850C4F8A05084F8AB50C4F8B050C4F8A0
:103DA000B450C4F8BC5084F8A8B084F8C4A084F817
:103DB000C75084F818114FF00B0184F8E09084F894
:103DC000FC0084F8342184F85031C4F8CC50C4F895
:103DD000D050C4F8D85084F8E16084F8E350C4F8B7
:103DE000E850C4F8EC50C4F8F45084F8FD6084F84E
:103DF000FF50C4F80451C4F80851C4F8105184F8B5
:103E0000196184F81B51C4F82051C4F82451C4F836
:103E10002C5184F8356184F83751C4F83C51C4F80A
:103E20004051C4F8485184F8516184F85351C4F8A2
:103E30005851C4F85C51C4F8645184F86C114FF0C7
:103E40000C0184F888114FF00D01D4F800E084F8DB
:103E5000A4114FF00E0184F8C0114FF0080184F84E
:103E60006D6184F86F51C4F87451C4F87851C4F886
:103E7000805184F8896184F88B51C4F89051C4F85A
:103E80009451C4F89C5184F8A56184F8A751C4F8F2
:103E9000AC51C4F8B051C4F8B85184F8C16184F889
:103EA000C351C4F8C851C4F8CC51C4F8D45184F8F3
:103EB000F95184F8F851E58784F8FB51C4F80052B1
:103EC000C4F80452C4F80C52CEF8045184F81552C8
:103ED00084F81462A4F85A6084F81752C4F81C528B
:103EE000C4F82052C4F82852CEF8085184F830C2E1
:103EF000A4F876C084F8315284F83352C4F83852AA
:103F0000C4F83C52C4F84452CEF80C5184F84C82A8
:103F1000A4F8928084F84D5284F84F52C4F8545259
:103F2000C4F85852C4F86052CEF8105184F869525F
:103F300084F868B2A4F8AEB084F86B52C4F870523A
:103F4000C4F87452C4F87C52CEF8145184F88552E7
:103F500084F884A2A4F8CAA084F88752C4F88C52CA
:103F6000C4F89052C4F89852CEF8185184F8A09230
:103F7000A4F8E69084F8A15284F8A352C4F8A85299
:103F8000C4F8AC52C4F8B452CEF81C5184F8BC0248
:103F9000A4F8020184F8BD5284F8BF52C4F8C45298
:103FA000C4F8C852C4F8D052CEF8205184F8D812C0
:103FB0004FF00801A4F81E114FF00B0184F8D952FC
:103FC00084F8DB52C4F8E052C4F8E452C4F8EC526E
:103FD000CEF8245184F8F55284F8F422A4F83A215A
:103FE00084F8F752C4F8FC52C4F80053C4F80853DC
:103FF000CEF8285184F81033A4F8563184F81153C0
:1040000084F81353C4F81853C4F81C53C4F8245349
:10401000CEF82C5184F82C134FF00B01A4F8721138
:104020004FF00C0184F82D5384F82F53C4F8345307
:10403000C4F83853C4F84053CEF8305184F84813CC
:104040004FF00C01A4F88E114FF00D0184F8495384
:1040500084F84B53C4F85053C4F85453C4F85C5319
:10406000CEF8345184F864134FF00D0184F8655391
:10407000A4F8AA114FF00E0184F86753C4F86C53EA
:10408000C4F87053C4F8785304F1100CCEF83851CA
:1040900084F8801384F8815384F88353BCE80F00BC
:1040A000E8464FF00E09A4F8C691C4F88853C4F846
:1040B0008C53C4F89453CEF83C51A8E80F00BCE8E8
:1040C0000F00A8E80F0097E8030088E803000B9AA8
:1040D00070460ECA02F04EFA636A84F8B963B342BE
:1040E0000FD0A36A012B08D0206802F0B7FD002092
:1040F0000DB0BDE8F08F01207047204600F0C0FCF5
:10410000F2E7204600F0A8FCEBE700BF90F8B833D8
:10411000012B01D10220704710B50123044680F81D
:10412000B833006802F08EFD206802F0F9F9002033
:1041300084F8B80310BD00BF2DE9F04F076889B0BF
:104140000446384602F0C6FD10B109B0BDE8F08F54
:104150000646206802F08EFD0028F6D0206802F0A6
:1041600089FD10F0020F206803D0436903F00203B9
:10417000436102F07FFD030300F141814FF0000A2B
:10418000206802F077FD450300F19380236818460C
:1041900002F070FD0028C0F2F881206802F06AFD8C
:1041A000000564D4206802F065FD020113D5226881
:1041B00094F8EC13536903F000635361002961D153
:1041C000536D0121C3F38303C4F8F03384F8EC1377
:1041D000204604F0A1FB206802F04CFDC30400F16E
:1041E0007881206802F046FD10F4005F206840F0FE
:1041F000498102F03FFD10F0100F206811D0836953
:1042000023F0100383613D6AC5F34343022B05F09D
:104210000F0600F0ED81062B38D0836943F01003C0
:10422000836102F027FD070700F1A681206802F0F4
:1042300021FDC60200F18A81206802F01BFD850283
:1042400000F18F81206802F015FD400000F13881F7
:10425000206802F00FFD41077FF577AF23685D68A6
:104260006A0700F1B3815A6815435D606DE7D7F8BE
:104270000838D90700F1B8812068436903F4006366
:10428000436190E7204604F04DFAA4E7082204F5C4
:104290006F713846C6EBC60602F080FC04EB86025E
:1042A000C5F30A13D2F8101220680B44C2F810327A
:1042B000B3E7206802F0EAFC8346002800F0098298
:1042C0002368039707F5106925464FF0000A049606
:1042D0001F4609E05FEA5B0B0AF1010A05F11C05C4
:1042E00009F1200900F067811BF0010FF2D05FFA9D
:1042F0008AF83846414602F0DBFC0646F00718D53E
:10430000039B2069D3F83418012202FA0AF221EA49
:104310000202C3F8342801239842C9F8083000F09B
:1043200092814146204604F0DFF92169012900F01D
:104330007C81310744BF0823C9F80830F20644BF26
:104340001023C9F80830730644BF4023C9F8083069
:10435000B70744BF0223C9F8083036062768B9D525
:1043600007F5106303EB4A13E86CD5F850C02A6CCC
:1043700006971946A0EB0C039342059189691E46E6
:1043800028BF164689B206F1030EB1EB9E0F28D95D
:10439000604526D928B3CDF81CA0696CDDF814A0BF
:1043A0001E4604E0EA6C9A4218D9D61A2A6C237C7D
:1043B0000093964228BF1646B3B24246384602F0F2
:1043C000D7FBDAF81820696C2B6DF01C92B23144DF
:1043D0003344B2EB900F69642B65E3D8DDF81CA081
:1043E0002768002E7FF476AF069B0122D3F834189D
:1043F00002FA0AF221EA0202C3F834286AE72068C6
:1044000002F03CFC054600283FF4B8AE07F53068E2
:10441000A1464FF0000A039608E06D080AF1010A70
:1044200008F1200809F11C0900F0C380EE07F4D55B
:104430005FFA8AF63146206802F030FC10F0010F76
:1044400083460ED0226901218A42C8F8081000F084
:104450000E813146204604F03DF92169012900F022
:10446000F7801BF0080F40F0AA801BF0100F1CBF54
:104470001023C8F808301BF0200F1CBF2023C8F8F9
:104480000830CAE702F02AFC2068C36823F470539E
:10449000C36002F04DF9002840F0F8802268E06027
:1044A000D3684FF4007143F410536161D360204628
:1044B00004F028F92068436903F40053436198E647
:1044C000204604F053F92068436903F080434361B8
:1044D000BFE607F500656B68206823F00103102133
:1044E0006B6002F013F9606850B107F51063FF22AA
:1044F000013686429A60C3F8082203F12003F7D1FF
:104500004FF0FF33AB61EB69226B43F00113EB61BA
:10451000002A60D0D5F8843043F00B03C5F884300E
:104520006B6C43F00B036B64D7F80038217C206878
:1045300023F4FE63C7F8003804F56F7202F0EAFB5B
:104540002068436903F4805343614BE620465FFAD9
:104550008AF104F007F92068436903F4801343618A
:104560006BE620465FFA8AF104F0F8F820684369A8
:1045700003F40013436166E6204604F0BFF82068A8
:10458000436903F00803436151E694F8EC13D7F84C
:104590000428012922F00102C7F8042800F08780CE
:1045A000204604F0D7F82068436903F000434361D4
:1045B000F4E5039EE4E53B46049E039FE7E52046C1
:1045C00004F082F80823C8F808304EE7204604F0CB
:1045D000D1F8236847E66B6943F02B036B612B69C5
:1045E00043F00B032B619FE7204604F09BF843E662
:1045F00047F6F0731D423FF410AEC6EBC60604EB5F
:104600008606C5F30A152A463846D6F8041202F083
:10461000C5FAD6F80422D6F8103220682A442B4472
:10462000C6F80422C6F81032F7E5BAF1000F7FF49D
:1046300080AEE36C002B7FF47CAE04F56F722068D3
:1046400002F068FB75E66B6C2A6C13446B6468E6D9
:10465000BAF1000F7FF405AFD4F80C32002B7FF4D1
:1046600000AF04F56F72206802F054FBF9E6D8F849
:104670001020D9F80002D9F80412C2F31202821AEB
:104680000144C9F81022C9F80412E2E603224023CB
:10469000E260636100F044FB394B3A4A03449342C1
:1046A0000CD82268D36843F47053D360FFE600212E
:1046B00084F8EC13204604F02FF974E7324B334AA8
:1046C0000344934207D82268D36843F46053D3600D
:1046D000EDE682465AE5A0F574032D4AA3F5105382
:1046E000934205D82268D36843F45053D360DEE682
:1046F000A0F18373274AA3F5E743934205D82268C4
:10470000D36843F44053D360D1E6234B234A034498
:10471000934205D82268D36843F43053D360C6E689
:104720001F4B204A0344934205D82268D36843F4C0
:104730002053D360BBE61C4B1C4A0344934205D86C
:104740002268D36843F41053D360B0E6A0F1B77386
:10475000174AA3F55853934205D82268D36843F407
:104760000053D360A3E6134B134A034493422268D9
:10477000D36894BF43F4E05343F4C053D36096E648
:10478000405327FFFF340C00401E1BFF3F420F0029
:104790007F4F12001FD6130060B6E5FE5FE31600E0
:1047A00000D3CEFE3F771B00C05BB3FEBF9121005C
:1047B0001F753800E05459FEDF9C410090F8B83373
:1047C000012B01D10220704710B50123044680F867
:1047D000B833006802F026FA002084F8B80310BD50
:1047E00070B50C061BD4C1EBC10500EB85051C247C
:1047F000002604FB010485F8F811C5F8002285F8AD
:10480000FB3185F8F96104F5FC71022B04BF00232C
:104810000B7190F8B833012B16D1022070BD01F056
:104820007F01C1EBC10500EB85051C24012604FBBB
:10483000010485F83810E9872A6485F83B3085F84B
:10484000396004F13801E0E70123044680F8B83309
:10485000006801F089FF002084F8B80370BD00BF34
:104860004AB2002A10B5044618DB1C2303FB0103DF
:1048700003F5FC73D20F5A70197094F8B823012A0B
:1048800001D1022010BD0122194684F8B823206806
:1048900001F0B2FF002084F8B80310BD01F07F01E1
:1048A0001C2303FB01033833E4E700BF38B501F0F4
:1048B0007F05C5EBC50400EB84040021C4F8042285
:1048C000C4F8101284F8F911C4F80C3284F8F851C5
:1048D00003691C2101FB0501012B08BFC4F8082254
:1048E00001F5FC71DAB200681DB101F0E3FF0020B0
:1048F00038BD02F0BDF8002038BD00BF01F00F0147
:10490000C1EBC10100EB8101B1F81002704700BF9B
:1049100070B501F07F05C5EBC50400EB84040121EF
:104920000026626484F83910E36484F83850266500
:1049300003691C2101FB0501012B08BFA26438316A
:10494000DAB200681DB101F0B5FF002070BD02F0C1
:104950008FF8002070BD00BF38B54BB2002B0C465D
:10496000054619DB1C2101FB040101F5FC71DB0F7D
:1049700001224B700C708A7095F8B833934201D1C4
:10498000022038BD85F8B823286802F015F954B123
:10499000002085F8B80338BD01F07F041C2101FB1D
:1049A00004013831E3E705F56F72297C286802F0CD
:1049B000B1F9EDE74AB2002A38B505461ADB1C23E7
:1049C00003FB010303F5FC73D20F00245A70197026
:1049D0009C7095F8B823012A01D1022038BD01222C
:1049E000194685F8B823286802F004F985F8B84319
:1049F000204638BD01F07F011C2303FB010338333F
:104A0000E2E700BF30B405686C6AD1B1AB6A013926
:104A100004EB13440CD000231846403305EB83030A
:104A200001305B68C0B2884204EB13440346F4DBF8
:104A3000403105EB810144EA02444C60002030BC67
:104A4000704744EA0244AC62002030BC704700BFAB
:104A5000036800205962704702680123C0F8F433EC
:104A60009369014643F00063002081F8EC039361F1
:104A7000536D43F0805343F003035365704700BF09
:104A800002680123C0F8F833936B43F40033936357
:104A900000207047704700BF70B504680646FEF7F7
:104AA00013FBD4F804389D0739D5A36B43F4802356
:104AB0000546A36305E0FEF707FB401BB0F57A7FD0
:104AC0002ED8A36BD807F6D56420FEF703FBA36BA3
:104AD000D9072FD4A36B23F48023A363A36B43F4E0
:104AE0000023A3636420FEF7F5FAA36B9A071CD595
:104AF000A36B23F40023A363A36B43F48013A3638A
:104B00006420FEF7E7FAA36B5B074CBFFB21FC2197
:104B10003046FFF7BFFF30460021FFF7BBFF70BDF7
:104B20003046FF21FFF7B6FF70BDFD213046FFF78D
:104B3000B1FFF0E7FE213046FFF7ACFFCAE700BF48
:104B400010B40D4C0D4A236823F003031843206072
:104B50001369012943F0040313610AD040BF20BF49
:104B600020BF064A5DF8044B136923F00403136168
:104B7000704730BFF5E700BF0070004000ED00E077
:104B8000174908B58B6803F00C03042B1BD0082BC6
:104B900017D14A684B6813F4800302F03F0214D126
:104BA00049681048C1F38811A1FB0001FBF710FF11
:104BB0000B4B5B68C3F3014301335B00B0FBF3F0C5
:104BC00008BD084808BD084808BD4B680648C3F33F
:104BD0008813A3FB00010023FBF7FAFEE8E700BF00
:104BE000003802400024F40000127A0060B1484A04
:104BF000136803F00F038B4208D2CBB21370136813
:104C000003F00F03994201D00120704703682DE99A
:104C1000F0419D0714D55C0704D53E4CA26842F4D0
:104C2000E052A2601A0704D53A4CA26842F46042EE
:104C3000A260384C8568A26822F0F0022A43A26084
:104C4000DF0704460D4622D54268012A5BD0931E39
:104C5000012B304B1B6850D9990725D52D4EB368D1
:104C600023F003031343B360FEF72EFA41F28837B3
:104C7000804605E0FEF728FAA0EB0800B8423FD8CE
:104C8000B368626803F00C03B3EB820FF2D1204AE1
:104C9000136803F00F039D4209D2EBB2137013683F
:104CA00003F00F039D4202D00120BDE8F08123688C
:104CB0005A0706D51749E0688A6822F4E052024391
:104CC0008A601B0707D5134A2169936823F4604360
:104CD00043EAC1039360FFF753FF0E4B0E499B68F5
:104CE0000E4AC3F30313CB5C20FA03F301201360D5
:104CF000FEF7A2F90020BDE8F0819801AED4D3E719
:104D00000320BDE8F081034B1B689E03A6D4CBE7CC
:104D1000003C024000380240709300081C01002053
:104D2000014B1868704700BF1C010020044B054A66
:104D30009B680549C3F382230868D35CD840704759
:104D400000380240809300081C010020044B054AF3
:104D50009B680549C3F342330868D35CD840704769
:104D600000380240809300081C0100202DE9F0412A
:104D7000036813F0010582B004460BD095494569DC
:104D8000D1F88C2022F0C0622A43B5FA85F5C1F82B
:104D90008C206D0999070BD58E49A069D1F88C201C
:104DA00022F0C05202430028C1F88C2008BF012520
:104DB0001A0700F197805A0704D5874B94F83820DA
:104DC0001A602368DF0608D58249606AD1F894200A
:104DD00022F440020243C1F894209E060BD57D4880
:104DE000A16AD0F8942022F000620A43B1F1006F6A
:104DF000C0F8942021D0580622D4012D2AD0802B2F
:104E000028D02068C10508D5724AE16AD2F88C30F2
:104E100023F000430B43C2F88C3010F4007009D02B
:104E20006C4A216BD2F88C3023F400430B43C2F858
:104E30008C30002002B0BDE8F0815A060AD5012569
:104E40006449206AD1F8942022F080520243C1F8CC
:104E50009420D2E7614B5F4D00221A60FEF734F9CF
:104E6000064604E0FEF730F9801B022836D82B688E
:104E70001A01F7D45A4B626B1A602268D30777D5B0
:104E80006369002B74D1E368A6686568206951499D
:104E90001B0643EA86132B4343EA0073C1F88430B0
:104EA00010060CD5E368A56860682169494A1B06AD
:104EB00043EA8513034343EA0173C2F88430474B46
:104EC000444D01221A60FEF7FFF806462B681901CF
:104ED00097D4FEF7F9F8801B0228F7D9032002B017
:104EE000BDE8F0813B4B3F4E002201921A6C42F02C
:104EF00080521A641B6C03F080530193019B33684A
:104F000043F480733360FEF7DFF8074604E0FEF7F2
:104F1000DBF8C01B0228E1D83368DB05F7D52D4943
:104F2000E3690A6F12F4407203F4407010D08242B9
:104F30000ED00B6F2C4A23F440730020012616601C
:104F400010600B670B6FD80728D4E36903F4407037
:104F5000B0F5407F33D01F498A6822F4F8128A6086
:104F60001C4A116FC3F30B030B431367236822E73B
:104F7000970702D5A369002B85D0960604D5A36AAE
:104F8000B3F1006F3FF47FAF550689D5236A002B3C
:104F900086D1A36AB3F1006F82D174E70E46FEF7A3
:104FA00093F841F28837804605E0FEF78DF8A0EBD4
:104FB0000800B84292D8336F9907F6D5C5E705487F
:104FC000826823F0704122F4F81221F440710A4300
:104FD0008260C5E700380240E0114742680047425E
:104FE000D810474200700040400E47422DE9F04182
:104FF0000368DD0782B004462FD5AC498A6802F009
:105000000C02042A00F0EB808A6802F00C02082AE5
:1050100000F0E1806368B3F5803F00F05B81B3F599
:10502000A02F00F0F480A14D2A6822F480322A607B
:105030002A6822F480222A60002B40F0F180FEF7DB
:1050400043F8064605E0FEF73FF8801B642800F2AF
:1050500005812B689B03F6D423689F0728D5934AC4
:10506000916811F00C0F00F09B80916801F00C0129
:10507000082900F09180E368002B00F010818C4B30
:105080008A4D01221A60FEF71FF8064605E0FEF77A
:105090001BF8801B022800F2E1802B689807F6D5E8
:1050A0002B68226923F0F80343EAC2032B602368CC
:1050B0001A075DD458073BD57C4A136C13F0805314
:1050C00040F097800193136C43F080531364136C8A
:1050D00003F080530193019B0126764D2B68D9057F
:1050E00040F1AC80A368012B00F0FA80052B00F0A2
:1050F000B9806E4D2A6F22F001022A672A6F22F0D2
:1051000004022A67002B40F0B680FDF7DDFF41F274
:105110008837804606E0FDF7D7FFA0EB0800B842CD
:1051200000F29C802B6F9807F5D4002E40F0DE80B3
:10513000A369CBB15D4DAA6802F00C02082A36D0F3
:10514000022B5D4B4FF000021A6000F0D580FDF796
:10515000BBFF2C46054604E0FDF7B6FF401B0228C6
:105160007CD823689B01F7D4002002B0BDE8F08111
:10517000636903B3514B4D4D01221A60FDF7A4FF43
:10518000064604E0FDF7A0FF801B022866D86B6F7F
:105190009B07F7D523688DE7526856023FF56BAF42
:1051A000424A1268950726D5E268012A23D00120D9
:1051B00002B0BDE8F081414A3C4D1360FDF784FF29
:1051C000064604E0FDF780FF801B022846D86B6F7F
:1051D0009F07F7D4DEE74A6850027FF51BAF334ADA
:1051E000126891037FF539AF6268002A7FF435AF0A
:1051F000DDE7002671E72D4920690A6822F0F802F0
:1052000042EAC0020A601A077FF554AFB0E7274BA5
:105210001A6842F480221A601A6842F480321A60D6
:10522000FDF752FF214D064604E0FDF74DFF801BC0
:10523000642813D82B689A03F7D50DE72B6843F43D
:1052400080732B60FDF740FF07462B68DA053FF5BA
:1052500049AFFDF739FFC01B0228F6D9032002B081
:10526000BDE8F081114B1A6F42F004021A671A6F01
:1052700042F001021A67FDF727FF0C4D804641F20C
:10528000883705E0FDF720FFA0EB0800B842E5D81D
:105290002B6F9B07F6D5002E3FF44AAF26E0044A59
:1052A000024D1360FDF710FF06460EE00038024085
:1052B000000047420070004060004742800E4742B5
:1052C000FDF702FF801B0228C8D82B689907F7D486
:1052D0002368EDE6214A136843F4803313609FE7A7
:1052E0001E4A136F43F001031367C4E71B4A136C94
:1052F00023F0805313641BE7FDF7E6FE064604E047
:10530000FDF7E2FE801B0228A8D82B689901F7D48C
:10531000E369D4F820E0676AE66AA26A206B104964
:105320000E4C43EA0E0343EA871343EA066352082E
:1053300043EA0073013A43EA024301226B600A60C8
:10534000FDF7C2FE054604E0FDF7BEFE401B022845
:1053500084D823689A01F7D506E700BF00380240D9
:105360006000474200283AD090F85120F8B5002557
:10537000044602F0FF0185625AB3A7686368E668D5
:1053800020696269E1693B43334303431343266A5F
:10539000A0692768626A0B43022184F851103968BA
:1053A000334300F40076000C334300F004002B4339
:1053B000024321F0400139603B607A60FB690022C2
:1053C00023F400630121FB611046626584F85110EB
:1053D000F8BD80F8501002F0D3FDA56ACDE701209A
:1053E000704700BFF8B5836804461BB94068B0F544
:1053F000827F10D094F85000012813D094F8510007
:105400000125C0B2A84284F850500DD002200023DC
:1054100084F85030F8BD94F850300420012B84F803
:10542000510039D10220F8BD0029F0D0002AEED079
:1054300000200425B3F5004F84F85150A163606546
:10544000A287E28720646064A086E08625687CD01D
:10545000E38FE06C404ADFF808E1404F0264002629
:105460000A469BB205F10C01C0F83CE0C764066532
:10547000FDF7C6FF23681A68520603D41A6842F083
:1054800040021A605A6842F020025A605A6842F09C
:1054900001025A600020BAE794F851300120DBB2D3
:1054A000834284F8500001D0042BAFD1002951D0A1
:1054B000002A4FD094F85130A286012B04BF052357
:1054C00084F8513000236365E286E28794F8510046
:1054D00023640428E06C63640CBF214B214BA2873A
:1054E0002163A1630CBF1C4A1F4A2668C363E38F74
:1054F00002640025194AC2649BB20A46056506F19A
:105500000C01FDF77DFF2268216B5368A06C43F00E
:1055100001035360E38E05640C329BB2C563C5641E
:105520000565FDF76DFF23681A68510603D41A68F4
:1055300042F040021A605A6842F020025A605A68EB
:1055400042F002025A60002061E72B6823F4804396
:105550002B607DE701205AE799550008B9550008EE
:10556000DD5500082D560008A955000810B5044661
:10557000806C08B1FDF786FFE06C08B1FDF782FF93
:1055800022685368012123F003035360002084F84C
:10559000511010BD704700BF08B5806BFCF7C6FD09
:1055A00008BD00BF704700BF08B5806BFFF7FAFF6A
:1055B00008BD00BF704700BF08B5836B19684A6813
:1055C00022F003024A605A6D012142F010025A652E
:1055D000184683F85110FFF7EDFF08BD08B50368C2
:1055E000806B1B68DB050FD4026841685368B1F516
:1055F000827F23F00303536009D001230022C28776
:1056000080F85130436D73B9FCF724FF08BD8368FF
:10561000B3F5004F02D0B3F5806FEED1136823F0DD
:1056200040031360E9E7FFF7C5FF08BD70B5064604
:10563000846BFDF749FD33681B68D90510D4054616
:1056400023689A6812060FD45A68002122F00302D8
:1056500001205A60E186E18784F85100636D6BBBDD
:105660002046FFF797FF70BDFDF72EFD401B632816
:10567000E6D9236861685A68B1F5827F22F0E002BA
:105680005A601FD0A26AB2F5005F08D11A684DF6C1
:10569000FF710A401A601A6842F400521A6001222F
:1056A00084F85120626D42F020026265626D002133
:1056B00042F02002626584F85010C5E72046FFF7EB
:1056C00079FF70BDA268B2F5004F02D0B2F5806FCD
:1056D000D8D11A6822F040021A60D3E7002875D0AA
:1056E00090F8393070B503F0FF020446002B68D003
:1056F00023683749022284F839208B421A6850D037
:10570000B3F1804F2DD0A1F57C418B4229D001F51A
:1057100080618B4225D001F580618B4221D001F55B
:1057200078418B421DD001F570518B422FD001F58D
:1057300080618B422BD001F580618B4227D0A1F58F
:1057400098318B4223D001F580618B421FD001F547
:1057500080618B421BD0E06861681A60D8629962F0
:105760000FE0A1682669E568606822F070020A43CC
:10577000184922F4407232438B421A60DD6298620B
:105780001CD001225A61002084F8392070BD25699F
:10579000E068616822F440722A431A60D862996214
:1057A000EFE7A6682069E568616822F0700232437D
:1057B00022F4407202431A60DD62996262691A63E0
:1057C000DFE780F8382002F017FE91E701207047EC
:1057D00000000140000401400222036810B580F877
:1057E0003920196A41F211121142044608D1196A8E
:1057F00040F24442114203D11A6822F001021A60B9
:10580000204602F05BFE002084F8390084F838005E
:1058100010BD00BF0168022210B480F839200A6868
:105820000124034622430A60002083F839405DF8D2
:10583000044B70470222036880F83920196A41F24C
:105840001112114208D1196A40F24442114203D1A7
:105850001A6822F001021A60012380F83930002012
:10586000704700BF704700BF002875D090F83930EE
:1058700070B503F0FF020446002B68D02368374957
:10588000022284F839208B421A6850D0B3F1804F3D
:105890002DD0A1F57C418B4229D001F580618B424E
:1058A00025D001F580618B4221D001F578418B42F2
:1058B0001DD001F570518B422FD001F580618B42D4
:1058C0002BD001F580618B4227D0A1F598318B4216
:1058D00023D001F580618B421FD001F580618B429E
:1058E0001BD0E06861681A60D86299620FE0A16815
:1058F0002669E568606822F070020A43184922F4BC
:10590000407232438B421A60DD6298621CD00122E1
:105910005A61002084F8392070BD2569E06861680B
:1059200022F440722A431A60D8629962EFE7A668AF
:105930002069E568616822F07002324322F4407207
:1059400002431A60DD62996262691A63DFE780F8D8
:105950003820FFF787FF91E70120704700000140E2
:1059600000040140704700BF002875D090F839301E
:1059700070B503F0FF020446002B68D02368374956
:10598000022284F839208B421A6850D0B3F1804F3C
:105990002DD0A1F57C418B4229D001F580618B424D
:1059A00025D001F580618B4221D001F578418B42F1
:1059B0001DD001F570518B422FD001F580618B42D3
:1059C0002BD001F580618B4227D0A1F598318B4215
:1059D00023D001F580618B421FD001F580618B429D
:1059E0001BD0E06861681A60D86299620FE0A16814
:1059F0002669E568606822F070020A43184922F4BB
:105A0000407232438B421A60DD6298621CD00122E0
:105A10005A61002084F8392070BD2569E06861680A
:105A200022F440722A431A60D8629962EFE7A668AE
:105A30002069E568616822F07002324322F4407206
:105A400002431A60DD62996262691A63DFE780F8D7
:105A50003820FFF787FF91E70120704700000140E1
:105A60000004014003680122186A02FA01F120EAE9
:105A7000010010B418621A6A0A4C1143A342196259
:105A80000AD0094A934207D01A685DF8044B42F0E5
:105A9000010200201A6070475A6C42F400425A64B6
:105AA000F2E700BF0000014000040140036830B489
:105AB0001A6A184D012404FA01F122EA01021A625D
:105AC0001A6A1A62AB4216D0134A934213D0196A6B
:105AD00041F21112114208D1196A40F244421142B6
